:020000040000FA
:100000000C945E000C9486000C9486000C94860080
:100010000C9486000C9486000C9486000C94860048
:100020000C9486000C9486000C9486000C94860038
:100030000C9486000C9486000C9486000C94860028
:100040000C94D5040C9486000C94A3040C947D04A9
:100050000C9486000C9486000C9486000C94860008
:100060000C941F050C94860000000000240027005B
:100070002A0000000008000201000003040700003D
:10008000000000000000010204081020408001026E
:1000900004081020010204081020000000002500C0
:1000A00028002B00040404040404040402020202D5
:1000B00002020303030303033A06B40711241FBE1D
:1000C000CFEFD8E0DEBFCDBF11E0A0E0B1E0E8EFB8
:1000D000F1E102C005900D92A831B107D9F722E0F5
:1000E000A8E1B1E001C01D92A934B207E1F710E028
:1000F000CDE5D0E004C02197FE010E94C407CC35B5
:10010000D107C9F70E94DC060C94EF080C9400009C
:100110004F925F926F927F928F929F92AF92BF9217
:10012000FF9220913102309132028217930708F03A
:1001300043C02B0166247724852E962EA72EBB2440
:10014000B82DA42F20913702F42C222391F0E22F16
:10015000F0E0E49DD001E59DB00DF49DB00D1124BB
:10016000FB2E289D40011124B92D249F90011124BC
:10017000A32FE0913D022091380230913902509135
:100180003A02E51323C0FC01EE0FFF1F8E0F9F1FE5
:10019000820F931FE0913A02E80FF92FF11DF082D0
:1001A000E0913B02E80FF92FF11DB08320913C0252
:1001B000820F911DFC01A083FF90BF90AF909F9094
:1001C0008F907F906F905F904F900895880F991F48
:1001D000880F991F820F931FE80FF92FF11D1082CE
:1001E000D9CFAF92BF92CF92DF92EF92FF920F934F
:1001F0001F93CF93DF936C017B018B01040F151FBD
:10020000EB015E01AE18BF08C017D10759F0699124
:10021000D601ED91FC910190F081E02DC601099588
:10022000892B79F7C501DF91CF911F910F91FF9035
:10023000EF90DF90CF90BF90AF900895FC01538D69
:10024000448D252F30E0842F90E0821B930B5417B0
:1002500010F0CF96089501970895FC01918D828D3D
:10026000981761F0A28DAE0FBF2FB11D5D968C91D6
:10027000928D9F5F9F73928F90E008958FEF9FEF15
:100280000895FC01918D828D981731F0828DE80FD1
:10029000F11D858D90E008958FEF9FEF0895FC018B
:1002A000918D228D892F90E0805C9F4F821B910958
:1002B0008F739927089582E991E00E944F0121E010
:1002C000892B09F420E0822F089580E090E0892BAB
:1002D00029F00E945B0181110C9400000895FC013B
:1002E000A48DA80FB92FB11DA35ABF4F2C91848D97
:1002F00090E001968F739927848FA689B7892C93F4
:10030000A089B1898C91837080648C93938D848D46
:10031000981306C00288F389E02D80818F7D808349
:100320000895EF92FF920F931F93CF93DF93EC0109
:1003300081E0888F9B8D8C8D98131AC0E889F9898C
:10034000808185FF15C09FB7F894EE89FF8960838F
:10035000E889F98980818370806480839FBF81E010
:1003600090E0DF91CF911F910F91FF90EF90089552
:10037000F62E0B8D10E00F5F1F4F0F731127E02E2D
:100380008C8D8E110CC00FB607FCFACFE889F98965
:10039000808185FFF5CFCE010E946F01F1CFEB8DFB
:1003A000EC0FFD2FF11DE35AFF4FF0829FB7F89439
:1003B0000B8FEA89FB8980818062CFCFCF93DF9357
:1003C000EC01888D8823B9F0AA89BB89E889F9896D
:1003D0008C9185FD03C0808186FD0DC00FB607FCA2
:1003E000F7CF8C9185FFF2CF808185FFEDCFCE01D5
:1003F0000E946F01E9CFDF91CF91089590E0FC0159
:10040000EE58FF4F2491FC01EA57FF4F3491FC0155
:10041000EC55FF4FE491EE23C9F0222339F023304D
:1004200001F1A8F4213019F1223029F1F0E0EE0FAA
:10043000FF1FE656FF4FA591B4918FB7F894EC914A
:10044000611126C030953E233C938FBF089527301D
:10045000A9F02830C9F0243049F7809180008F7DC1
:1004600003C0809180008F7780938000DFCF84B5B8
:100470008F7784BDDBCF84B58F7DFBCF8091B000BB
:100480008F778093B000D2CF8091B0008F7DF9CF6D
:100490003E2BDACFCF93DF9390E0FC01EA57FF4F7A
:1004A00024918C559F4FFC0184918823D1F090E0DA
:1004B000880F991FFC01E859FF4FA591B491FC01E9
:1004C000E656FF4FC591D49161110EC09FB7F894C5
:1004D0008C91E22FE0958E238C932881E223E88390
:1004E0009FBFDF91CF9108958FB7F894EC91E22BE5
:1004F000EC938FBFF6CF3FB7F89480918E01909127
:100500008F01A0919001B091910126B5A89B05C0E3
:100510002F3F19F00196A11DB11D3FBFBA2FA92F82
:10052000982F8827BC01CD01620F711D811D911D7F
:1005300042E0660F771F881F991F4A95D1F70895EB
:100540008F929F92AF92BF92CF92DF92EF92FF92E3
:100550000E947B024B015C018AE0C82ED12CE12C69
:10056000F12C0E947B02681979098A099B09683E6F
:10057000734081059105A8F321E0C21AD108E10872
:10058000F10888EE880E83E0981EA11CB11CC114EE
:10059000D104E104F10429F7FF90EF90DF90CF90B0
:1005A000BF90AF909F908F900895CF92DF92EF927F
:1005B000FF920F931F93CF93DF93CDB7DEB72997A9
:1005C0000FB6F894DEBF0FBECDBF80913802909178
:1005D0003902892B09F480C0C0903E02D0903F02BE
:1005E000E0904002F09041020E947B026C157D0574
:1005F0008E059F0550F40E947B0260933E0270932B
:100600003F0280934002909341020E947B0200913E
:100610003E0210913F022091400230914102601B46
:10062000710B820B930B6C32714081059105A0F226
:10063000F89480913302909134029A838983E091F7
:100640003802F0913902DF011196808189879091FB
:100650002F02E0914202F0914302809144029923DB
:1006600009F449C09081982B9887908180958923BF
:100670008F838F818C8388E08B8358856F81498538
:100680003B812C8189819A81508347FD252F3A95A2
:100690002083262F39F0441F00C000006083000033
:1006A00000C0F2CF38E04D9160830000019761F700
:1006B000F0934302E093420249873B832C839A8361
:1006C000898378940E947B0260933E0270933F027C
:1006D000809340029093410229960FB6F894DEBFB2
:1006E0000FBECDBFDF91CF911F910F91FF90EF9083
:1006F000DF90CF9008959081982B98879081809576
:1007000089238F838F818E8388E08D8358856F81C5
:1007100049853D812E8189819A81508347FD252F0E
:1007200000C000C0208300C000C000C000C000C0E6
:1007300060830000262F3A9541F0441F000000C05E
:1007400000C000C000C000C0E8CF38E04D9100C03C
:10075000608300C0019709F7F0934302E0934202DF
:1007600049873D832E83ABCF20913F01260F33274E
:10077000331F21323105ECF420916301FC0190E03C
:1007800080E0243069F082E00895A0913F0121913A
:10079000AC01415E5E4FA40FB52FB11D2C930196A5
:1007A000861798F380913F01680F60933F0180E0C6
:1007B000089581E0089508958FEF9FEF08958FEFDA
:1007C0009FEF08958091180190E09195819591098E
:1007D0000895CF93DF93CB01EA01642F0E94B40305
:1007E000CE01DF91CF910895CF93DF931F92CDB7C4
:1007F000DEB7698361E0CE0101960E94B40381E017
:1008000090E00F90DF91CF91089590E080E00895FF
:100810001F93CF93DF9385ED8093BC0080911B01E4
:1008200090911C01A0911D01B0911E010796A11D80
:10083000B11D23E0B695A795979587952A95D1F791
:100840002091BC0024FD03C01092630152C040916E
:100850001B0150911C0160911D0170911E01452BDF
:10086000462B472B69F30097A105B10541F025E31D
:100870002A95F1F700000197A109B109E1CF809114
:100880001A01C1E0C0931901882399F1D091B800F1
:100890001091BA008091BC008A7B8093BC0060E01C
:1008A00082E10E94FE0160E083E10E94FE0110925D
:1008B0006301C09365011092640161E082E10E94CE
:1008C000FE0161E083E10E94FE018091B9008E7F0C
:1008D0008093B9008091B9008D7F8093B90088E43E
:1008E0008093B80085E48093BC001093BA00D09345
:1008F000B800DF91CF911F9108951F920F920FB60C
:100900000F9211242F933F934F935F936F937F9395
:100910008F939F93AF93BF93EF93FF9382E991E0FF
:100920000E946F01FF91EF91BF91AF919F918F91C5
:100930007F916F915F914F913F912F910F900FBEDB
:100940000F901F9018951F920F920FB60F921124BF
:100950002F938F939F93EF93FF93E091A201F091D8
:10096000A3018081E091A801F091A90182FD1BC043
:1009700090818091AB018F5F8F732091AC018217C2
:1009800041F0E091AB01F0E0EE56FE4F958F809381
:10099000AB01FF91EF919F918F912F910F900FBE1F
:1009A0000F901F9018958081F4CF1F920F920FB671
:1009B0000F9211242F933F938F939F93AF93BF93E5
:1009C00080918A0190918B01A0918C01B0918D0151
:1009D0003091890123E0230F2D3758F50196A11D91
:1009E000B11D2093890180938A0190938B01A0937C
:1009F0008C01B0938D0180918E0190918F01A09117
:100A00009001B09191010196A11DB11D80938E01BD
:100A100090938F01A0939001B0939101BF91AF91FA
:100A20009F918F913F912F910F900FBE0F901F902C
:100A3000189526E8230F0296A11DB11DD2CF1F9253
:100A40000F920FB60F9211242F933F934F935F9302
:100A50006F937F938F939F93AF93BF93EF93FF9386
:100A60008091B900887F803609F44AC0F0F5883259
:100A700009F4A5C018F5803109F499C0B8F48823A9
:100A800009F4F5C0883009F492C0FF91EF91BF914D
:100A9000AF919F918F917F916F915F914F913F9116
:100AA0002F910F900FBE0F901F901895883109F469
:100AB00086C0803251F78093620114C0803409F4FB
:100AC0009BC040F48033B9F38833F9F68093620118
:100AD00085ECAEC0803509F483C0883509F494C034
:100AE000883499F60E940804D0CF883909F48AC066
:100AF00038F5883729F050F4883611F0803729F618
:100B000083E0809363011092610155C0883809F435
:100B100079C0803919F0803809F0B7CF8091610130
:100B2000803208F06FC0E091610181E08E0F809308
:100B300061018091BB00F0E0EF5BFE4F80833BC022
:100B4000803B39F0D0F4803A09F477C0883A09F054
:100B50009CCF84E0809363011092400110923F018A
:100B6000F0E0E0E0099580913F0181110FC081E044
:100B700080933F0110921F0109C0803C09F4A8CF67
:100B8000883C09F4A5CF883B09F07FCFE091400174
:100B900081E08E0F80934001F0E0E15EFE4F8081A6
:100BA0008093BB009091400180913F0129C08091CA
:100BB00088018093BB0085EC8093BC0066CF909148
:100BC000870180918601981758F5E091870181E0AF
:100BD0008E0F80938701F0E0EA59FE4F8081E9CFC4
:100BE000E091870181E08E0F809387018091BB00A7
:100BF000F0E0EA59FE4F8083909187018091860151
:100C00009817C8F285E8D8CFE091870181E08E0F70
:100C1000809387018091BB00F0E0EA59FE4F80830A
:100C20008091650181115ECF81E08093640184EA47
:100C30008093BC001092630128CF85EC8093BC00A8
:100C40001092630180916101803230F4E091610182
:100C5000F0E0EF5BFE4F10826091610170E081E493
:100C600091E0F0E0E0E00995109261010ECF109262
:100C7000620138CF109295011092940188EE93E0B2
:100C8000A0E0B0E08093960190939701A093980123
:100C9000B09399018AE091E090939301809392013F
:100CA00085EC90E090939F0180939E0184EC90E00E
:100CB0009093A1018093A00180EC90E09093A30118
:100CC0008093A20181EC90E09093A5018093A40110
:100CD00082EC90E09093A7018093A60186EC90E0CF
:100CE0009093A9018093A8011092AB011092AC01DE
:100CF0001092AD011092AE011092300210923702A4
:100D000010923E0210923F02109240021092410255
:100D100081E080933D0280933A0210923B0292E080
:100D200090933C0280932F028EEA90E090933402DD
:100D3000809333020E94CA0790933902809338024D
:100D4000009789F12EEAFC0111922A95E9F78AE3CE
:100D500090E0909332028093310282E090E0909391
:100D600036028093350280913002882341F061E0A1
:100D700082E00E944A0260E082E00E94FE01E6EA10
:100D8000F0E0E491F0E0EE0FFF1FE656FF4F859193
:100D900094919093430280934202E8E8F0E0E4915A
:100DA000E09344020895109234021092330210929C
:100DB000320210923102D1CF789484B5826084BD22
:100DC00084B5816084BD85B5826085BD85B581604F
:100DD00085BD80916E00816080936E0010928100CD
:100DE0008091810082608093810080918100816088
:100DF0008093810080918000816080938000809149
:100E0000B10084608093B1008091B00081608093D4
:100E1000B00080917A00846080937A0080917A009B
:100E2000826080937A0080917A00816080937A005A
:100E300080917A00806880937A001092C100E091DE
:100E4000A201F091A30182E08083E0919E01F091E4
:100E50009F011082E091A001F091A1018FEC8083AD
:100E60001092AA01E091A601F091A70186E080838B
:100E7000E091A401F091A501808180618083E091DF
:100E8000A401F091A501808188608083E091A40194
:100E9000F091A501808180688083E091A401F091A8
:100EA000A50180818F7D80838091350290913602EB
:100EB00097FD08C061E00E944A0260E0809135021F
:100EC0000E94FE0181E080933002D0E0C0E040E06B
:100ED00050E0BA01CE010E9488002196CA33D105A4
:100EE000B1F70E94D5020E94D50200E010E0D0E0E8
:100EF000C0E040E050E06FEF70E0CE010E9488005B
:100F00002196CA33D105A9F70E94D5020E94A002FA
:100F1000D0E0C0E040E05FEF60E070E0CE010E9412
:100F200088002196CA33D105A9F70E94D5020E94F4
:100F3000A002D0E0C0E04FEF50E060E070E0CE01F2
:100F40000E9488002196CA33D105A9F70E94D502D4
:100F50000E94A0020115110551F20E945B01882335
:100F600031F20E940000C3CF809138029091390283
:100F70000E946608809135029091360297FD03C069
:100F800060E00C944A020895EE0FFF1F0590F49163
:100F9000E02D09940F931F93CF93DF938230910537
:100FA00010F482E090E0E0914702F091480230E0D6
:100FB00020E0B0E0A0E0309799F42115310509F464
:100FC0004AC0281B390B24303105D8F58A819B8112
:100FD0006115710589F1FB0193838283FE0111C0C4
:100FE000408151810281138148175907E0F0481769
:100FF000590799F4109761F012960C931297139673
:101000001C933296CF01DF91CF911F910F910895DC
:101010000093470210934802F4CF2115310551F097
:101020004217530738F0A901DB019A01BD01DF0126
:10103000F801C1CFEF01F9CF9093480280934702A6
:10104000CDCFFE01E20FF31F81939193225031091E
:1010500039832883D7CF2091450230914602232B34
:1010600041F4209102013091030130934602209314
:10107000450220910001309101012115310541F413
:101080002DB73EB74091040150910501241B350B4B
:10109000E0914502F0914602E217F307A0F42E1BFF
:1010A0003F0B2817390778F0AC014E5F5F4F2417CC
:1010B000350748F04E0F5F1F50934602409345029C
:1010C000819391939FCFF0E0E0E09CCFCF93DF93AB
:1010D0000097E9F0FC01329713821282A091470237
:1010E000B0914802ED0130E020E01097A1F420819A
:1010F0003181820F931F20914502309146022817BB
:10110000390709F061C0F0934602E0934502DF9190
:10111000CF910895EA01CE17DF07E8F54A815B8198
:101120009E0141155105B1F7E901FB83EA8349911D
:101130005991C40FD51FEC17FD0761F4808191818F
:101140000296840F951FE901998388838281938198
:101150009B838A83F0E0E0E012968D919C91139737
:101160000097B9F52D913C911197CD010296820F10
:10117000931F20914502309146022817390739F60E
:10118000309751F51092480210924702B0934602F0
:10119000A0934502BCCFD383C28340815181840F89
:1011A000951FC817D90761F44E5F5F4F88819981F9
:1011B000480F591F518340838A819B819383828387
:1011C0002115310509F0B0CFF0934802E0934702B2
:1011D0009ECFFD01DC01C0CF13821282D7CF10E079
:1011E000CDE5D0E004C0FE010E94C4072196CE35B3
:1011F000D107C9F7F894FFCF000049028000000032
:1012000000009101F1001E01DE014F012D0141019D
:107E0000112484B714BE81FFF0D085E080938100F7
:107E100082E08093C00088E18093C10086E0809377
:107E2000C20080E18093C4008EE0C9D0259A86E02C
:107E300020E33CEF91E0309385002093840096BBD3
:107E4000B09BFECF1D9AA8958150A9F7CC24DD24C4
:107E500088248394B5E0AB2EA1E19A2EF3E0BF2EE7
:107E6000A2D0813461F49FD0082FAFD0023811F036
:107E7000013811F484E001C083E08DD089C08234E0
:107E800011F484E103C0853419F485E0A6D080C0E4
:107E9000853579F488D0E82EFF2485D0082F10E0AE
:107EA000102F00270E291F29000F111F8ED06801E7
:107EB0006FC0863521F484E090D080E0DECF843638
:107EC00009F040C070D06FD0082F6DD080E0C81688
:107ED00080E7D80618F4F601B7BEE895C0E0D1E017
:107EE00062D089930C17E1F7F0E0CF16F0E7DF06D8
:107EF00018F0F601B7BEE89568D007B600FCFDCFD4
:107F0000A601A0E0B1E02C9130E011968C91119780
:107F100090E0982F8827822B932B1296FA010C0160
:107F200087BEE89511244E5F5F4FF1E0A038BF0790
:107F300051F7F601A7BEE89507B600FCFDCF97BE46
:107F4000E89526C08437B1F42ED02DD0F82E2BD052
:107F50003CD0F601EF2C8F010F5F1F4F84911BD097
:107F6000EA94F801C1F70894C11CD11CFA94CF0C13
:107F7000D11C0EC0853739F428D08EE10CD085E9AC
:107F80000AD08FE07ACF813511F488E018D01DD067
:107F900080E101D065CF982F8091C00085FFFCCF94
:107FA0009093C60008958091C00087FFFCCF809118
:107FB000C00084FD01C0A8958091C6000895E0E648
:107FC000F0E098E1908380830895EDDF803219F02E
:107FD00088E0F5DFFFCF84E1DECF1F93182FE3DFCA
:107FE0001150E9F7F2DF1F91089580E0E8DFEE27F6
:047FF000FF270994CA
:027FFE00040479
:00000001FF
